{
  "contractName": "Election",
  "abi": [
    {
      "inputs": [],
      "payable": false,
      "stateMutability": "nonpayable",
      "type": "constructor"
    },
    {
      "constant": true,
      "inputs": [
        {
          "internalType": "uint256",
          "name": "",
          "type": "uint256"
        }
      ],
      "name": "candidates",
      "outputs": [
        {
          "internalType": "string",
          "name": "",
          "type": "string"
        }
      ],
      "payable": false,
      "stateMutability": "view",
      "type": "function"
    },
    {
      "constant": true,
      "inputs": [],
      "name": "owner",
      "outputs": [
        {
          "internalType": "address",
          "name": "",
          "type": "address"
        }
      ],
      "payable": false,
      "stateMutability": "view",
      "type": "function"
    },
    {
      "constant": true,
      "inputs": [
        {
          "internalType": "uint256",
          "name": "index",
          "type": "uint256"
        }
      ],
      "name": "getCandidateName",
      "outputs": [
        {
          "internalType": "string",
          "name": "",
          "type": "string"
        }
      ],
      "payable": false,
      "stateMutability": "view",
      "type": "function"
    },
    {
      "constant": false,
      "inputs": [
        {
          "internalType": "string",
          "name": "name",
          "type": "string"
        },
        {
          "internalType": "uint256",
          "name": "index",
          "type": "uint256"
        }
      ],
      "name": "setCandidateName",
      "outputs": [],
      "payable": false,
      "stateMutability": "nonpayable",
      "type": "function"
    }
  ],
  "bytecode": "0x608060405234801561001057600080fd5b50336000806101000a81548173ffffffffffffffffffffffffffffffffffffffff021916908373ffffffffffffffffffffffffffffffffffffffff1602179055506040518060400160405280600b81526020017f63616e6469646174652031000000000000000000000000000000000000000000815250600160006002811061009557fe5b0190805190602001906100a9929190610107565b506040518060400160405280600b81526020017f63616e6469646174652032000000000000000000000000000000000000000000815250600180600281106100ed57fe5b019080519060200190610101929190610107565b506101ac565b828054600181600116156101000203166002900490600052602060002090601f016020900481019282601f1061014857805160ff1916838001178555610176565b82800160010185558215610176579182015b8281111561017557825182559160200191906001019061015a565b5b5090506101839190610187565b5090565b6101a991905b808211156101a557600081600090555060010161018d565b5090565b90565b610534806101bb6000396000f3fe608060405234801561001057600080fd5b506004361061004c5760003560e01c80633477ee2e146100515780634ec4202f146100f85780638da5cb5b146101bd578063e13804a714610207575b600080fd5b61007d6004803603602081101561006757600080fd5b81019080803590602001909291905050506102ae565b6040518080602001828103825283818151815260200191508051906020019080838360005b838110156100bd5780820151818401526020810190506100a2565b50505050905090810190601f1680156100ea5780820380516001836020036101000a031916815260200191505b509250505060405180910390f35b6101bb6004803603604081101561010e57600080fd5b810190808035906020019064010000000081111561012b57600080fd5b82018360208201111561013d57600080fd5b8035906020019184600183028401116401000000008311171561015f57600080fd5b91908080601f016020809104026020016040519081016040528093929190818152602001838380828437600081840152601f19601f8201169050808301925050505050505091929192908035906020019092919050505061035e565b005b6101c5610385565b604051808273ffffffffffffffffffffffffffffffffffffffff1673ffffffffffffffffffffffffffffffffffffffff16815260200191505060405180910390f35b6102336004803603602081101561021d57600080fd5b81019080803590602001909291905050506103aa565b6040518080602001828103825283818151815260200191508051906020019080838360005b83811015610273578082015181840152602081019050610258565b50505050905090810190601f1680156102a05780820380516001836020036101000a031916815260200191505b509250505060405180910390f35b600181600281106102bb57fe5b016000915090508054600181600116156101000203166002900480601f0160208091040260200160405190810160405280929190818152602001828054600181600116156101000203166002900480156103565780601f1061032b57610100808354040283529160200191610356565b820191906000526020600020905b81548152906001019060200180831161033957829003601f168201915b505050505081565b816001826002811061036c57fe5b01908051906020019061038092919061045a565b505050565b6000809054906101000a900473ffffffffffffffffffffffffffffffffffffffff1681565b6060600182600281106103b957fe5b018054600181600116156101000203166002900480601f01602080910402602001604051908101604052809291908181526020018280546001816001161561010002031660029004801561044e5780601f106104235761010080835404028352916020019161044e565b820191906000526020600020905b81548152906001019060200180831161043157829003601f168201915b50505050509050919050565b828054600181600116156101000203166002900490600052602060002090601f016020900481019282601f1061049b57805160ff19168380011785556104c9565b828001600101855582156104c9579182015b828111156104c85782518255916020019190600101906104ad565b5b5090506104d691906104da565b5090565b6104fc91905b808211156104f85760008160009055506001016104e0565b5090565b9056fea265627a7a7231582054e92ff1eaf72aa1b7ccc5eb8bf1f74cbd7eca386188c3ddd552a6eececf1b1464736f6c63430005100032",
  "source": "pragma solidity >= 0.5.16;\n\ncontract Election {\n    address public owner;\n    string[2] public candidates;\n\n    modifier onlyOwner {\n        if(owner == msg.sender){\n        _;\n        }\n    }\n\n    constructor() public{\n        owner = msg.sender;\n        candidates[0] = \"candidate 1\";\n        candidates[1] = \"candidate 2\";\n    }\n\n    /*function getCandidates() public view returns (string[2] memory) {\n        return candidates;\n    }*/\n\n    function getCandidateName(uint index) public view returns (string memory) {\n        return candidates[index];\n    }\n\n    function setCandidateName(string memory name, uint index) public {\n        candidates[index] = name;\n    }\n\n    /*function setCandidate(string memory name, uint  index) public returns (uint){\n        candidates[0] = name;\n        return index;\n    }*/\n}",
  "sourcePath": "/Users/charlesfrank/Desktop/projects/blockchain-voting/contracts/Election.sol",
  "compiler": {
    "name": "solc",
    "version": "0.5.16+commit.9c3226ce.Emscripten.clang"
  },
  "schemaVersion": "3.4.4",
  "updatedAt": "2022-01-31T23:37:15.120Z",
  "networkType": "ethereum",
  "devdoc": {
    "methods": {}
  },
  "userdoc": {
    "methods": {}
  }
}